:020000040800F2
:1000000000800020D9210608770C06086503000847
:10001000790C06087B0C06087D0C06080000000021
:100020000000000000000000000000007F0C060837
:10003000810C060800000000830C0608850C0608E9
:10004000C9010008CB010008CD010008CF0100085C
:10005000D1010008D3010008D5010008D70100082C
:10006000D9010008DB010008DD010008DF010008FC
:10007000E1010008E3010008E5010008E7010008CC
:10008000E9010008EB010008ED010008EF0100089C
:10009000F1010008F3010008F5010008F70100086C
:1000A000F9010008FB010008FD010008FF0100083C
:1000B0005134050803020008050200080702000881
:1000C000090200080B0200080D0200080F020008D8
:1000D00011020008F90C06081502000817020008B2
:1000E000190200081B0200081D0200081F02000878
:1000F0002102000823020008250200082702000848
:1001000029020008916E05082D0200082F02000840
:1001100031020008330200083502000837020008E7
:10012000390200083B0200083D020008A96E0508DC
:10013000D50C0608430200084502000847020008E3
:10014000490200084B0200084D0200084F02000857
:10015000510200089D6E0508E10C0608FD0C06081A
:10016000590200085B0200085D0200085F020008F7
:1001700061020008ED0C060865020008000000009E
:1001800067020008690200086B0200086D0200089F
:100190006F0200087102000873020008750200086F
:1001A00077020008790200087B0200087D0200083F
:1001B0007F0200088102000883020008850200080F
:1001C0008702000889020008FEE7FEE7FEE7FEE777
:1001D000FEE7FEE7FEE7FEE7FEE7FEE7FEE7FEE7F7
:1001E000FEE7FEE7FEE7FEE7FEE7FEE7FEE7FEE7E7
:1001F000FEE7FEE7FEE7FEE7FEE7FEE7FEE7FEE7D7
:10020000FEE7FEE7FEE7FEE7FEE7FEE7FEE7FEE7C6
:10021000FEE7FEE7FEE7FEE7FEE7FEE7FEE7FEE7B6
:10022000FEE7FEE7FEE7FEE7FEE7FEE7FEE7FEE7A6
:10023000FEE7FEE7FEE7FEE7FEE7FEE7FEE7FEE796
:10024000FEE7FEE7FEE7FEE7FEE7FEE7FEE7FEE786
:10025000FEE7FEE7FEE7FEE7FEE7FEE7FEE7FEE776
:10026000FEE7FEE7FEE7FEE7FEE7FEE7FEE7FEE766
:10027000FEE7FEE7FEE7FEE7FEE7FEE7FEE7FEE756
:0C028000FEE7FEE7FEE7FEE7FEE70000F9
:100290004B1C012B98BF70472DE9F003911C9B0864
:1002A000B1F80480B1F802900A8831F802CC804499
:1002B000814402448444D9F80070D8F8006015687D
:1002C000DCF80040C9F80060C8F80070CCF80050B5
:1002D0001460D9F80470D8F804605568DCF804405C
:1002E000C9F80460C8F80470CCF8045054600831B0
:1002F000013BD5D1BDE8F00370474B1C012B98BFE3
:1003000070472DE9F003911C9B08B1F80480B1F807
:1003100002900A8831F802CC00EB580800EB59092A
:1003200000EB520200EB5C0CD9F80070D8F80060CA
:100330001568DCF80040C9F80060C8F80070CCF817
:10034000005014600831013BDFD1BDE8F003704775
:10035000C8F00E0800800020808B0020808D0020D7
:100360007C5901201EF0040F0CBFEFF30880EFF35F
:1003700009808169FEE700BF81F0004102E000BF13
:1003800083F0004330B54FEA41044FEA430594EA55
:10039000050F08BF90EA020F1FBF54EA000C55EA90
:1003A000020C7FEA645C7FEA655C00F0E2804FEA61
:1003B0005454D4EB5555B8BF6D420CDD2C4480EA43
:1003C000020281EA030382EA000083EA010180EA73
:1003D000020281EA0303362D88BF30BD11F0004FC1
:1003E0004FEA01314FF4801C4CEA113102D04042F7
:1003F00061EB410113F0004F4FEA03334CEA133332
:1004000002D0524263EB430394EA050F00F0A78049
:10041000A4F10104D5F1200E0DDB02FA0EFC22FA44
:1004200005F2801841F1000103FA0EF2801843FA38
:1004300005F359410EE0A5F120050EF1200E012A29
:1004400003FA0EFC28BF4CF0020C43FA05F3C01867
:1004500051EBE37101F0004507D54FF0000EDCF1E0
:10046000000C7EEB00006EEB0101B1F5801F1BD389
:10047000B1F5001F0CD349085FEA30004FEA3C0C8D
:1004800004F101044FEA445212F5800F80F09A8083
:10049000BCF1004F08BF5FEA500C50F1000041EB87
:1004A000045141EA050130BD5FEA4C0C404141EB8B
:1004B0000101013C28BFB1F5801FE9D291F0000F86
:1004C00004BF01460020B1FA81F308BF2033A3F135
:1004D0000B03B3F120020CDA0C3208DD02F1140C2C
:1004E000C2F10C0201FA0CF021FA02F10CE002F167
:1004F0001402D8BFC2F1200C01FA02F120FA0CFC60
:10050000DCBF41EA0C019040E41AA2BF01EB0451A8
:10051000294330BD6FEA04041F3C1CDA0C340EDCA6
:1005200004F11404C4F1200220FA04F001FA02F3E9
:1005300040EA030021FA04F345EA030130BDC4F1A7
:100540000C04C4F1200220FA02F001FA04F340EA9C
:100550000300294630BD21FA04F0294630BD94F04D
:10056000000F83F4801306BF81F480110134013D34
:100570004EE77FEA645C18BF7FEA655C29D094EAA5
:10058000050F08BF90EA020F05D054EA000C04BF23
:100590001946104630BD91EA030F1EBF002100200E
:1005A00030BD5FEA545C05D14000494128BF41F0AD
:1005B000004130BD14F580043CBF01F5801130BD11
:1005C00001F0004545F0FE4141F470014FF000009C
:1005D00030BD7FEA645C1ABF194610467FEA655C4D
:1005E0001CBF0B46024650EA013406BF52EA0335EF
:1005F00091EA030F41F4002130BD00BF90F0000FDD
:1006000004BF0021704730B54FF4806404F1320418
:100610004FF000054FF0000150E700BF90F0000FD1
:1006200004BF0021704730B54FF4806404F13204F8
:1006300010F0004548BF40424FF000013EE700BFC8
:1006400042004FEAE2014FEA31014FEA02701FBF58
:1006500012F07F4393F07F4F81F06051704732F08A
:100660007F4208BF704793F07F4F04BF41F40021E1
:10067000704730B54FF4607401F0004521F000413F
:100680001CE700BF50EA010208BF704730B54FF0C9
:1006900000050AE050EA010208BF704730B511F0CA
:1006A000004502D5404261EB41014FF4806404F102
:1006B00032045FEA915C3FF4D8AE4FF003025FEA88
:1006C000DC0C18BF03325FEADC0C18BF033202EB0C
:1006D000DC02C2F1200300FA03FC20FA02F001FA66
:1006E00003FE40EA0E0021FA02F11444BDE600BF09
:1006F00070B54FF0FF0C4CF4E06C1CEA11541DBFB8
:100700001CEA135594EA0C0F95EA0C0F00F0DEF882
:100710002C4481EA030621EA4C5123EA4C5350EA67
:10072000013518BF52EA033541F4801143F48013B8
:1007300038D0A0FB02CE4FF00005E1FB02E506F049
:100740000042E0FB03E54FF00006E1FB03569CF09E
:10075000000F18BF4EF0010EA4F1FF04B6F5007FA4
:1007600064F5407404D25FEA4E0E6D4146EB060616
:1007700042EAC62141EA55514FEAC52040EA5E509F
:100780004FEACE2EB4F1FD0C88BFBCF5E06F1ED849
:10079000BEF1004F08BF5FEA500E50F1000041EB80
:1007A000045170BD06F0004646EA010140EA02002D
:1007B00081EA0301B4EB5C04C2BFD4EB0C0541EA4F
:1007C000045170BD41F480114FF0000E013C00F364
:1007D000AB8014F1360FDEBF002001F0004170BD88
:1007E000C4F10004203C35DA0C341BDC04F11404A1
:1007F000C4F1200500FA05F320FA04F001FA05F22D
:1008000040EA020001F0004221F0004110EBD370F9
:1008100021FA04F642EB06015EEA430E08BF20EA25
:10082000D37070BDC4F10C04C4F1200500FA04F3C8
:1008300020FA05F001FA04F240EA020001F000415A
:1008400010EBD37041F100015EEA430E08BF20EACD
:10085000D37070BDC4F1200500FA05F24EEA020E15
:1008600020FA04F301FA05F243EA020321FA04F044
:1008700001F0004121FA04F220EA020000EBD370FB
:100880005EEA430E08BF20EAD37070BD94F0000FFB
:100890000FD101F00046400041EB010111F4801F2F
:1008A00008BF013CF7D041EA060195F0000F18BFE0
:1008B000704703F00046520043EB030313F4801F1C
:1008C00008BF013DF7D043EA0603704794EA0C0FD6
:1008D0000CEA135518BF95EA0C0F0CD050EA4106EC
:1008E00018BF52EA4306D1D181EA030101F0004169
:1008F0004FF0000070BD50EA410606BF1046194691
:1009000052EA430619D094EA0C0F02D150EA01369C
:1009100013D195EA0C0F05D152EA03361CBF1046DD
:1009200019460AD181EA030101F0004141F0FE417C
:1009300041F470014FF0000070BD41F0FE4141F400
:10094000780170BD70B54FF0FF0C4CF4E06C1CEA00
:1009500011541DBF1CEA135594EA0C0F95EA0C0FB5
:1009600000F0A7F8A4EB050481EA030E52EA033570
:100970004FEA013100F088804FEA03334FF0805591
:1009800045EA131343EA12634FEA022245EA1115BE
:1009900045EA10654FEA00260EF000419D4208BF6F
:1009A000964244F1FD0404F5407402D25B084FEA1C
:1009B0003202B61A65EB03055B084FEA32024FF4C8
:1009C00080104FF4002CB6EB020E75EB030E22BF25
:1009D000B61A754640EA0C005B084FEA3202B6EBE5
:1009E000020E75EB030E22BFB61A754640EA5C0094
:1009F0005B084FEA3202B6EB020E75EB030E22BF24
:100A0000B61A754640EA9C005B084FEA3202B6EB24
:100A1000020E75EB030E22BFB61A754640EADC00E3
:100A200055EA060E18D04FEA051545EA16754FEA45
:100A300006164FEAC30343EA52734FEAC2025FEA63
:100A40001C1CC0D111F4801F0BD141EA00014FF0F2
:100A500000004FF0004CB6E711F4801F04BF0143C3
:100A60000020B4F1FD0C88BFBCF5E06F3FF6AFAEDF
:100A7000B5EB030C04BFB6EB020C5FEA500C50F16F
:100A8000000041EB045170BD0EF0004E4EEA1131F2
:100A900014EB5C04C2BFD4EB0C0541EA045170BDF9
:100AA00041F480114FF0000E013C90E645EA060E3D
:100AB0008DE60CEA135594EA0C0F08BF95EA0C0F6B
:100AC0003FF43BAF94EA0C0F0AD150EA01347FF4B3
:100AD00034AF95EA0C0F7FF425AF104619462CE78A
:100AE00095EA0C0F06D152EA03353FF4FDAE1046ED
:100AF000194622E750EA410618BF52EA43067FF43E
:100B0000C5AE50EA41047FF40DAF52EA43057FF4CD
:100B1000EBAE12E74FF0FF3C06E000BF4FF0010CD8
:100B200002E000BF4FF0010C4DF804CD4FEA410C3C
:100B30007FEA6C5C4FEA430C18BF7FEA6C5C1BD009
:100B400001B050EA410C0CBF52EA430C91EA030F8A
:100B500002BF90EA020F0020704710F1000F91EAE7
:100B6000030F58BF994208BF90422CBFD8176FEAB5
:100B7000E37040F0010070474FEA410C7FEA6C5C83
:100B800002D150EA013C07D14FEA430C7FEA6C5C8A
:100B9000D6D152EA033CD3D05DF8040B704700BFB6
:100BA0008446104662468C461946634600E000BF04
:100BB00001B5FFF7B7FF002848BF10F1000F01BDD6
:100BC0004DF808EDFFF7F4FF0CBF012000205DF8A1
:100BD00008FB00BF4DF808EDFFF7EAFF34BF012026
:100BE00000205DF808FB00BF4DF808EDFFF7E0FFBF
:100BF00094BF012000205DF808FB00BF4DF808ED10
:100C0000FFF7CEFF94BF012000205DF808FB00BF76
:100C10004DF808EDFFF7C4FF34BF012000205DF858
:100C200008FB00BF4FEA410C7FEA6C5C02D150EA3E
:100C3000013C0AD14FEA430C7FEA6C5C02D152EAD4
:100C4000033C02D14FF0000070474FF001007047A5
:100C50004FEA410212F5001215D211D56FF47873E4
:100C6000B3EB625212D94FEAC12343F0004343EA87
:100C7000505311F0004F23FA02F018BF4042704762
:100C80004FF00000704750EA013005D111F00040EC
:100C900008BF6FF0004070474FF00000704700BF82
:100CA0004A0011D212F5001211D20DD56FF47873EB
:100CB000B3EB62520ED44FEAC12343F0004343EA40
:100CC000505323FA02F070474FF00000704750EA8B
:100CD000013002D14FF0FF3070474FF000007047F5
:100CE0004FEA4102B2F1E04324BFB3F5001CDCF14E
:100CF000FE5C0DD901F0004C4FEAC0024CEA507086
:100D0000B2F1004F40EB830008BF20F001007047B4
:100D100011F0804F21D113F13872BCBF01F00040B7
:100D2000704741F480114FEA5252C2F11802C2F1E9
:100D3000200C10FA0CF320FA02F018BF40F001006A
:100D40004FEAC1234FEAD32303FA0CFC40EA0C001C
:100D500023FA02F34FEA4303CCE77FEA625307D159
:100D600050EA01331EBF4FF0FE4040F44000704790
:100D700001F0004040F0FE4040F40000704700BF2A
:100D800080F0004002E000BF81F0004142001FBF40
:100D90005FEA410392EA030F7FEA226C7FEA236C49
:100DA0006AD04FEA1262D2EB1363C1BFD21841403E
:100DB00048404140B8BF5B42192B88BF704710F0D4
:100DC000004F40F4000020F07F4018BF404211F077
:100DD000004F41F4000121F07F4118BF494292EADF
:100DE000030F3FD0A2F1010241FA03FC10EB0C000B
:100DF000C3F1200301FA03F100F0004302D5494298
:100E000060EB4000B0F5000F13D3B0F1807F06D344
:100E100040084FEA310102F10102FE2A51D2B1F13C
:100E2000004F40EBC25008BF20F0010040EA030031
:100E30007047490040EB0000013A28BFB0F5000FB1
:100E4000EDD2B0FA80FCACF1080CB2EB0C0200FA67
:100E50000CF0AABF00EBC25052421843BCBFD040B6
:100E60001843704792F0000F81F4000106BF80F430
:100E700000000132013BB5E74FEA41037FEA226CF3
:100E800018BF7FEA236C21D092EA030F04D092F0BE
:100E9000000F08BF0846704790EA010F1CBF0020F2
:100EA000704712F07F4F04D1400028BF40F000404F
:100EB000704712F100723CBF00F50000704700F06F
:100EC000004343F0FE4040F4000070477FEA226296
:100ED00016BF08467FEA23630146420206BF5FEA67
:100EE000412390EA010F40F4800070474FF0000367
:100EF00004E000BF10F0004348BF40425FEA000C2E
:100F000008BF704743F0964301464FF000001CE0D5
:100F100050EA010208BF70474FF000030AE000BF2B
:100F200050EA010208BF704711F0004302D5404269
:100F300061EB41015FEA010C02BF844601460020DB
:100F400043F0B64308BFA3F18053A3F50003BCFAF6
:100F50008CF2083AA3EBC25310DB01FA02FC6344A3
:100F600000FA02FCC2F12002BCF1004F20FA02F2AA
:100F700043EB020008BF20F00100704702F120029D
:100F800001FA02FCC2F1200250EA4C0021FA02F2FE
:100F900043EB020008BF20EADC7070477BB972B9EE
:100FA0000029BEBF00204FF0004106E008BF002826
:100FB0001CBF6FF000414FF0FF3000F057B8ADF1AB
:100FC000080C6DE904CE002909DB002B1ADB67F061
:100FD0005BFADDF804E0DDE9022304B0704740422B
:100FE00061EB4101002B1BDB67F04EFADDF804E0FA
:100FF000DDE9022304B0404261EB4101524263EB60
:1010000043037047524263EB430367F03DFADDF858
:1010100004E0DDE9022304B0404261EB4101704786
:10102000524263EB430367F02FFADDF804E0DDE999
:10103000022304B0524263EB4303704753B94AB9E9
:10104000002908BF00281CBF4FF0FF314FF0FF30D0
:1010500000F00CB8ADF1080C6DE904CE67F014FA9D
:10106000DDF804E0DDE9022304B07047704700BFFB
:1010700010F8012B11F8013B012A28BF9A42F7D042
:10108000D01A7047000000000000000000000000BF
:1010900001F0FF01102A2BDB10F0070F08D010F829
:1010A000013B013A8B422DD010F0070F42B3F6D12D
:1010B000F0B441EA012141EA014122F007047FF046
:1010C00000070023F0E80256083C85EA010586EA9D
:1010D000010685FA47F5A3FA87F586FA47F6A5FAD9
:1010E00087F68EB9EED1F0BC01F0FF0102F00702E5
:1010F00032B110F8013B013A83EA010313B1F8D190
:101100000020704701387047002D06BF3546033870
:10111000073815F0010F07D1013015F4807F02BFA9
:10112000013015F4C03F0130F0BC0138704700BFFA
:10113000034613F8012B002AFBD1181A0138704717
:1011400010B5054C237833B9044B13B10448AFF301
:1011500000800123237010BD808D0020000000005E
:10116000C4BB060808B5034B1BB103490348AFF3E2
:10117000008008BD00000000848D0020C4BB06086C
:10118000024B586F431E584258417047C48E00208E
:1011900000207047034B186902288CBF00200120F3
:1011A000704700BFC48E0020024B1869B0FA80F06F
:1011B00040097047C48E0020014B01221A6070471D
:1011C000AC8E002070B5ADF51E7D054618220021BD
:1011D00002A868F051FD0023182202A901932846B5
:1011E00001AB58F0D7F9064620B1002420460DF592
:1011F0001E7D70BD019B182BF7D14FF4167102A80C
:1012000003F010F804460028EFD04FF41672314670
:1012100008A868F031FD01AB069A08A9284658F0E5
:10122000B9F90028E1D10699019B9942DDD108A8BE
:1012300002F0CCFF079B9842D7D15F4B08A9069AD2
:10124000184668F044FE059A0346752A70D8D0F80F
:101250008C2064214A43C0F8D4210322C3F8D8214A
:101260000022C3F8DC210022C3F8E0210022C3F8E9
:10127000E4210122C3F8E8211F22C3F8EC210F2248
:10128000C3F8F0210022C3F8F4219A6A4FF47A716E
:101290004A43C3F8F8210022C3F8FC21DA6A4FF46C
:1012A0007A714A43C3F800220022C3F804221A6B61
:1012B0004FF47A714A43C3F808220022C3F80C2283
:1012C0000122C3F810220122C3F814220022C3F81D
:1012D00018223A4AC3F81C22394AC3F820220022B5
:1012E000C3F824220122C3F828220022C3F82C22AA
:1012F000344AC3F830220022C3F834220022C3F853
:1013000038220022C3F83C220022C3F840222E4A91
:10131000C3F844222D4AC3F848220022C3F84C22C5
:1013200045F2F052C3F850220022C3F854223FE0A5
:10133000762A92D0772A93D0782A94D0792A95D099
:101340007A2A96D07B2A97D07C2A98D07D2A99D069
:101350007E2A9AD07F2A9ED0802A9FD0812AA3D02D
:10136000822AA4D0832AA8D0842AA9D0852AAAD0E8
:10137000862AABD0872AACD0882AADD0892AAED0B5
:101380008A2AAFD08B2AB0D08C2AB1D08D2AB2D085
:101390008E2AB3D08F2AB4D0902AB5D0912AB6D055
:1013A000922AB7D0932AB8D0942AB9D0952ABBD024
:1013B000074A1A601AE700BFC48E002000F90295A0
:1013C0008093DC14C0FC9B01E067350060823B0029
:1013D000332E3064F0B585B00E46054614461F46E0
:1013E00002F0A8FF00280CBF2E212C21B5B1AEB110
:1013F0004FF47A72B4FBF2F302FB134487B19DF809
:101400002870084A0848002F18BF02460091284655
:101410003146CDE90142054A68F0A0FA05B0F0BDB9
:10142000004AF3E7B4160D080FC0060815C00608F9
:1014300038B50C46054678B1FFF77AFE03469C4264
:10144000204628BF184630B1984204D22A5C02F0E8
:10145000C002802A02D038BD0346F0E70138F2E727
:1014600008B5064B1B7843B1054858F013FD0449F5
:101470000448BDE8084058F05EBE08BD5C8200200C
:1014800026C006083CC00608F8B50D4600270446ED
:101490001146077065B1BF2A284628BFBF21FFF754
:1014A000C7FF064602462946204668F010FDA755AC
:1014B000F8BD2DE9F04F0446B1B00F4601460020BB
:1014C000924606F0DBF9B0F5D87F204609D8FFF741
:1014D0002FFE21460246384631B0BDE8F04FFFF7F7
:1014E000D3BF0025FFF724FEA3468146A846012668
:1014F000B14512D305D99BF8013003F0C003802B0E
:1015000026D0324621466846FFF7BEFF69460020D6
:1015100006F0B4F9B0F5D87F12D9FDB121462C44BC
:101520002A463846FFF7B0FF254601342B78202B9A
:10153000FAD02846FFF7FCFD294602465046CBE785
:10154000B14509D99BF80030B046202B08BF35467D
:1015500001360BF1010BCBE7B046F9E7B8F1000F0C
:1015600005D101212046FFF763FF0546D6E7454632
:10157000D4E70000F0B5ADF51B7D18220021654CC5
:101580000DF13F0602A868F077FB4FF40B7226F0CE
:101590001F060021304668F06FFB002301935E4B6D
:1015A000186858F0E4FC10F0F70F0ED101255B48E5
:1015B000257158F0DCFC10F0F7020AD00423E37127
:1015C000A0710223E370637127E0022323710323D8
:1015D000F5E75349104657F0C1FE2A465049514895
:1015E00057F0BCFE98B9504A962102A84FF41673E2
:1015F000657002F003FE0A224C49304657F0E0FEC7
:1016000078B10223E37063710723E37104E00223DE
:10161000E5716370E3706371A07100200DF51B7DAF
:10162000F0BD01AB182202A9304658F079F8054602
:1016300018B9019B182B07D0072508233046E37102
:10164000A57158F0B5F924E0019001AB4FF4167282
:101650003549304658F064F8054620B9019BB3F58A
:10166000167F02D007250923E8E7304658F03FF9F6
:10167000054600284CD1304658F09AF907464FF4F9
:101680000B722946304668F0F7FA37B10B23A77181
:10169000E371264858F0FEFB93E7254858F0FAFB23
:1016A00010F0FB0F03D00C23A071E371F1E7204988
:1016B000204858F040FD70B10428F4D11D491B4862
:1016C00058F039FD0546D8B1184858F0E3FB0D2312
:1016D000A571E37175E71749144858F02CFD0546CC
:1016E00020B11449124858F026FDEDE7124858F091
:1016F000D1FB10F0FB0F03D10F490D4858F01BFD33
:1017000001200023E07060712071A371E37185E70F
:101710000A2393E7BC8E002060820020B8360708B9
:101720007F4E0120A04E0120C48E002052C006082A
:1017300068C006083CC006087EC006080F4A0023A1
:10174000136090B1012302F8023CA1B901230C4AB5
:101750000029537014BF012300239171D3710CBF72
:1017600001220022074B1A707047032302F8023C43
:101770000029EBD0EBE70223E9E700BFBE8E002093
:10178000BC8E00205C82002020B1034A13680360F5
:1017900053684360704700BFBC8E002013289ABF77
:1017A000024B53F820000248704700BFC0490708A9
:1017B00094C006080D289ABF024B53F82000024837
:1017C000704700BF8849070897C00608054B064ABE
:1017D000187028B91378032B18BF00235370704773
:1017E0000123FBE75C820020BC8E0020014B1878AF
:1017F000704700BF5C820020214B2DE9F0411D782D
:101800001DB101252846BDE8F0812E461D4FDFF8A9
:101810007C8000223946104657F0A0FD384658F02B
:101820006DFD55F013FB002E0CBF5020B42058F076
:1018300077FD3946404658F045FDF0B9012211497F
:10184000114857F08BFD044655F060F9421E2146C1
:1018500050425041FFF772FF002CD2D0094858F097
:101860004DFD46B155F052F9431E214658425841AC
:10187000FFF764FFC6E70126CBE70C24F1E700BFC2
:101880005C8200207F4E0120A04E0120ECE30E0878
:10189000014B53F820007047C48E0020094B0A4AC0
:1018A000D3F8000290420BD9D86A4FF47A73A0FBA8
:1018B000030382424FF000029A4138BF41F2883060
:1018C000704700BFC48E002040420F000C4B0D4AF1
:1018D000D3F8F801A0F57A7191420FD9986A4FF4C4
:1018E0007A73A0FB0303B0F57A7143F1FF338A42A8
:1018F0004FF000029A4138BF4CF25030704700BFA1
:10190000C48E0020583E0F000B4B0C4AD3F808023F
:10191000A0F57A7191420ED9186B4FF47A73A0FB3F
:101920000303B0F57A7143F1FF338A424FF00002AE
:101930009A4138BF02487047C48E002018C69A3BAF
:1019400020A107000B2838B50C461F4D0DD1FFF71D
:10195000A5FF4FF47A73E9620022A1FB03431B4900
:10196000A14272EB030327D238BD0A280FD1FFF73B
:10197000ADFF4FF47A7315490022AC62A4FB034318
:10198000A14272EB0303EFD3C5E97E4216E00C28B7
:101990000FD1FFF7B9FF4FF47A730D4900222C6382
:1019A000A4FB0343A14272EB0303DDD3C5E98242EA
:1019B00004E045F82010D7E7C5E980428442D3D03F
:1019C0004FF0FF332B62CFE7C48E002040420F0060
:1019D00000CA9A3BF8B5624C4FF4167200210125FB
:1019E0002046604E68F048F95F4F604B32210A2074
:1019F00067616162C4E90036C4E90256FFF7A2FFDD
:101A000005210B20FFF79EFF4FF4FA710C20FFF722
:101A100099FF072303205649564ADFF878C1C4F8D6
:101A2000CC51C4E90D330623C4E91412C4E90F03F1
:101A3000A2F57C0200230221E364C4F8B831A36755
:101A4000C4E916234FF41642C4E918234A4AC4E9EC
:101A50001FC24A4AC4E921204222C4F88C2041F224
:101A60006802C4F8BC204FF44862C4E9312302F193
:101A70009A7202F2F272C4F8D42040F28A72C4F868
:101A8000D8204FF46162C4E91136C4E91A35C4E9BB
:101A90001C33C4E93335C4F890200522C4F8DC3087
:101AA000C4F8A420C4F80421C4F82C21C4F854219B
:101AB000C4F87C210822C4F89831C4F8AC51C4F8A9
:101AC000D031C4E93816C4E9642243F2B0614FF45E
:101AD00016522B4EC4F8F010C4F81811C4F8401177
:101AE000C4F868112821C4E967230A22C4E96C12EA
:101AF00041F6C812C4E975200F221F20C4E93A53E9
:101B0000C4E96935C4E97733C4E97935C4E97B02AE
:101B10004CF25032C4F8F431C4F81832C4F84C32E4
:101B2000C4E97E2341F28832C4E98023154AC4E91E
:101B30008223154AC4E98B37C4E98762134F144ADC
:101B4000C4E9917245F2F052C4E98455C4E989357B
:101B5000C4E98D33C4E98F33C4E99423F8BD00BFD1
:101B6000C48E0020809FD500C0FC9B01332E3064C2
:101B70003333A3400000484300389C1C00688909A7
:101B800000F9029520A107008093DC14E06735007E
:101B900060823B00A086010030B5ADF5197D054699
:101BA000182200210DF13704684668F065F800211D
:101BB00024F01F044FF40B72204668F05DF869466C
:101BC000284658F0D9F820B1002528460DF5197D92
:101BD00030BD009B172BF7D901222946204657F02C
:101BE000EFFB0028F0D1FFF7F5FE2046FFF7EAFAF9
:101BF0000546204657F0DCFEE7E70000F0B5104B45
:101C000085B00025019301AE0E4B02930E4B03935A
:101C100056F8047B3846FFF7BFFF044648B10B482F
:101C200058F038F90949384658F085FA204605B089
:101C3000F0BD0135032DEBD1FFF7CCFEF6E700BF79
:101C400052C0060868C006087EC006083CC00608E8
:101C5000B14BD3F8B821022A73B504D9042A1CBFAA
:101C60000022C3F8B8211A69D3F88010032A84BF70
:101C700000221A61D3F89821032A84BF0022C3F8F6
:101C80009821A64A9142A64988BFC3F88020D3F87C
:101C900084208A4210D0A34882420DD0A2488242BA
:101CA0000AD0A248824207D0A148824204D0A1486B
:101CB000824218BFC3F88410D3F84C2212B100221C
:101CC000C3F84C22D3F850229B49643AD86F8A4219
:101CD0009A4984BF45F2F052C3F85022984A824292
:101CE00028BF02468A4238BF0A46B2FBF1F24A4395
:101CF00001398842DA6708D8D3F8E01019B1013900
:101D0000042928BF0421C3F8E010596B032909D125
:101D1000986B012806D1D86B012802BF0720D96330
:101D2000C3E90D00D3F880108448814206D9854864
:101D3000414341F2C600B0EBB11F02D28249C3F861
:101D40008010D3F88C1042F2AC600139632984BF53
:101D50004221C3F88C10D3F8D4116439814282BF78
:101D6000D3F88C1064204143D3F8D80188BFC3F85E
:101D7000D411012808D0072803D8A821C140C807DA
:101D800002D40321C3F8D8116D49D3F8DC0188428D
:101D900084BF0021C3F8DC11D3F81012032984BFDB
:101DA0000021C3F81012D3F81412012984BF0121B5
:101DB000C3F81412D3F8181241B1A1F11000EE28A3
:101DC00001D8C90702D50021C3F81812D3F81C02A4
:101DD0005E4901445E488142D3F8200284BF5D49D8
:101DE000C3F81C125C4901445C48814284BF5C49D1
:101DF000C3F82012D3F82412032984BF0021C3F8AA
:101E00002412D3F82812032984BF0121C3F8281211
:101E1000D3E989018142534802BF013101F0030136
:101E2000C3F82812D3F82C12012984BF0021C3F86B
:101E30002C12D3F83012A1F57421A1F51071814252
:101E400084BF4949C3F83012D3F83412D3E991045E
:101E500002294FF0000188BFC3F834128242C3F850
:101E60004012C3E98E11D3F8801005D8814203D9FE
:101E7000844201D9A14209D23C48814204D93C4A5A
:101E8000914228BF11460246C3E99121D3F8BC20F4
:101E900042B1A2F5FA62B2F5FA5F84BF41F268027C
:101EA000C3F8BC20D3F8C410B1F57A7F04D3D3F8BB
:101EB000BC202AB1914203D34FF44862C3F8C42036
:101EC000D3F8C0200026144CB2F5FA6F84BF00226C
:101ED000C3F8C020D3F89021043A102A84BF082206
:101EE000C3F89021D3F89421043A102A84BF082221
:101EF000C3F894211F4B00935F238DF80430002515
:101F00001DF806002844C0B254F820301D2B33D9E8
:101F10000521FFF717FD2FE0C48E0020803E6D568F
:101F20000068890900C2EB0B00497F0F80DF1710A2
:101F30000076B010800C49119CC99A3BA086010024
:101F400020A107003961C26880D1F00800AADE7CB8
:101F500000A0252600F90295C0B4B3FF4072052AFF
:101F60008093DC14C09EE605C0FC9B01E067350051
:101F700060823B0029414B550135052DC0D101360A
:101F8000052EBCD1D4F8EC30042B84BF0023C4F858
:101F9000EC30D4F8D03113B10023C4F8D031D4F8E8
:101FA000E031414A012B84BF0023C4F8E031D4F86A
:101FB000E431032B84BF0023C4F8E431D4F8E831C2
:101FC000012B84BF0123C4F8E831D4F8EC3113F0BD
:101FD0001F0308BF1F23C4F8EC31D4F8F03113F00D
:101FE0000F0308BF0F23C4F8F031D4F8F431012BEC
:101FF00084BF0023C4F8F431D4F8F831A3F57A7320
:10200000934210D94FF47A71A36A4B434CF250318A
:10201000A3F57A70904288BF0B46C4F8F8310023CC
:10202000C4F8FC3103E0D4F8FC31012BF7D81F4889
:10203000D4F80032834227D9E36A4FF47A72002140
:10204000A3FB0232984271EB020238BF41F288339F
:10205000C4E98031D4F808321548A3F57A73834275
:102060001AD9236B4FF47A720021A3FB0232B3F525
:102070007A7542F1FF32A84271EB020238BF0D4B74
:10208000C4E9823102B070BDD4F80432012B84BFA0
:102090000023C4F80432DDE7D4F80C32012B84BFEE
:1020A0000023C4F80C32EDE7583E0F0040420F0009
:1020B00018C69A3B20A1070008B5FFF7EFFB07EE13
:1020C000900A9FED030AF8EE677A87EE800A08BD52
:1020D00000007A4408B5FFF7F9FB07EE900A9FED80
:1020E000030AF8EE677A87EE800A08BD00007A449A
:1020F00008B5FFF709FC07EE900A9FED030AF8EE1A
:10210000677A87EE800A08BD00007A44034BD3F853
:102110000C02431E58425841704700BFC48E002035
:10212000A0F57A7244F638239A4210D800F5FA7274
:102130004FF47A71074BB2FBF1F2C3F800020120B1
:10214000DA624FF0FF32C3F804021A6270470020CF
:10215000704700BFC48E0020A0F51C530B4A103BF3
:10216000934210D800F5FA724FF47A71084BB2FB23
:10217000F1F2C3F8F80101209A624FF0FF32C3F880
:10218000FC011A6270470020704700BF30E6020071
:10219000C48E0020A0F5C3330B4AA03B934210D855
:1021A00000F5FA724FF47A71084BB2FBF1F2C3F802
:1021B000080201201A634FF0FF32C3F80C021A62C2
:1021C00070470020704700BFE0FD1C00C48E002057
:1021D00037B515460446FFF761FB074B0246D3F8B7
:1021E0000432581E43424341204600932B46FFF7DA
:1021F000F1F803B030BD00BFC48E002073B50D46AA
:1022000016460446FFF762FB074B02462046D3F80A
:10221000FC31591E4B424B41294600933346FFF790
:10222000D9F802B070BD00BFC48E002073B50D4652
:1022300016460446FFF768FB074B02462046D3F8D4
:102240000C32591E4B424B41294600933346FFF74F
:10225000C1F802B070BD00BFC48E0020044B1B78D3
:1022600023B1044B044A1A60FFF784B9704700BFDA
:102270005C820020C48E0020332E30642DE9F041B2
:10228000ADF51C7D1822002104A80DF1470767F069
:10229000F3FCFFF79FFB794B27F01F071B782BB947
:1022A000FFF7D6FC0DF51C7DBDE8F08104A974484C
:1022B00057F062FD734D0446B0B1031FDBB2012B32
:1022C00005D90223A871AB706B71EB71E8E70123AC
:1022D000AB7003236B71FFF791FC10B9FFF7BEFFE2
:1022E000DEE701236B71DBE70126049B2E71AE70E4
:1022F00023B902236B71FFF7B3F8ECE701464FF403
:102300000B72384667F0B8FC32465D493846CDE975
:10231000014457F055F830B10223A871AB706B71CE
:102320000523EB71BCE7042202AB38460DEB02013A
:1023300057F030F9014648B10223A871AB706B71B8
:102340000623EB71384657F033FB15E0029B384605
:10235000042BF8D157F03DFB002840F08280019A11
:10236000494B9A4213D13846FEF72CFF04463846B3
:1023700057F01EFB002C7AD102236B71FFF770F827
:10238000FFF73CFC002872D1FFF724FBA6E7049E70
:10239000731EB3F5EC7FD5D2B007D3D100213846F8
:1023A000039157F016FB0028CCD1384C03AB3246D2
:1023B0003846214657F0EEF80028C3D1039B9E42D1
:1023C000C0D1B6F5EA7F4FF000064FF00108304962
:1023D0009CBFD4F88C306422C4F81862384698BF89
:1023E00053434FF47A72C4F82C6298BFC4F8D431C6
:1023F0000323C4F84062C4E976361F23C4E97A8314
:102400000F23C4E97C36A36A5343C4E97E36E36AEA
:102410005343C4E98036236B53431E4AC4E98236D2
:102420001D4BC4E987231D4BC4E98C361C4BC4E902
:102430007866C4E98488C4E98968C4E98E66C4E919
:10244000911303F1C843A3F53523A3F22D43236071
:1024500057F0AEFA85F8028085F80580AE71EE710E
:102460003CE70223A871AB700623EB716AE70123F6
:10247000AB706B710023AB71EB7111E75C820020D4
:102480003CC00608BC8E002043464731C48E002065
:10249000E067350000F902958093DC14C0FC9B01D5
:1024A00060823B0008B5FFF7D3FBFFF7D7FE03F0D0
:1024B000E3FF0B4B1B687BB1C82057F031FFBFF324
:1024C0004F8F0849084BCA6802F4E0621343CB609F
:1024D000BFF34F8F00BFFDE7044B01221A6008BD18
:1024E000B88E002000ED00E00400FA05AC8E00205C
:1024F000044B187820B1044B044A1A60FFF73AB82D
:10250000704700BF5C820020C48E0020332E3064F0
:102510003128F7B5054600F24E8228239B4E9C4A8F
:102520004343F35C7D2B52F8234000F28B80682BF1
:102530001ED8043BD9B219294AD9282202FB0562C8
:10254000116921B190680023984240F02A82282323
:1025500003FB0566337D072B00F22D82DFE813F0C5
:102560002D0236023D023F0242024402460251025F
:10257000693B142BE1D801A252F823F01727000879
:102580002D270008432700083B2500083B250008AD
:102590003B2500083B2500083B2500083B2500089B
:1025A0003B2500086D270008832700083B2500080D
:1025B000E92800081D2900082D29000843290008E2
:1025C0005F2900083B2500083B2500086F2900080B
:1025D000192BB2D801A151F823F000BF71260008D1
:1025E0003B2500083B2500083B2500085B2600082A
:1025F0003B250008B3260008A3260008C1260008D2
:102600003B2500083B2500083B2500083B2500082A
:102610003B2500083B250008E72600083B2500086D
:102620003B2500083B2500083B2500083B2500080A
:10263000FD2600083B2500085F2900083B2500080F
:102640005F290008952B7FF478AF012C40F096812C
:10265000504B514A5149524806E0002CBFF66DAF2D
:10266000504B514A5149524801F042FEF8B964E7D3
:1026700024B9504B1A4619461846F5E7012C04D1E7
:102680004D4B4E4A4E494F48EEE7022C01BF4E4B90
:102690004E4A4F494F481FBF4F4B504A504951482F
:1026A000E2E7514801222821FFF792FD4E4803B08E
:1026B000F0BD4E4801222821FFF7A0FD4B48F6E768
:1026C000D2F80C32012B07D0494B9C4204D1494B24
:1026D000494A4A494A48C7E74A4801222821FFF7A0
:1026E000A5FD4848E3E724B9474B484A48494948CB
:1026F000BAE7494B494A4A494A48B5E7002C7FF4B2
:102700001CAF494B494A4A494A48ADE74A4B4B4AF4
:102710004B494C48A8E724B14B4B4C4A4C494D48D7
:10272000A2E74D4B4D4A4E494E489DE724B14E4BD2
:102730004E4A4F494F4897E74F4B504A50495148EE
:1027400092E724B9504B514A514952488CE7012C29
:1027500004D1514B514A5249524885E7022C7FF42B
:10276000ECAE514B514A524952487DE724B1524B8D
:10277000524A5349534877E7534B544A54495548B2
:1027800072E7554B554A564956486DE7104A0708B7
:10279000C48E0020A4C70608B3C70608B9C7060838
:1027A000BFC70608BAC00608C1C00608C7C00608E9
:1027B000CCC00608D1C00608E1C0060806C106085C
:1027C0001EC1060836C1060854C1060879C10608AC
:1027D00091C10608A9C10608C7C10608E9C10608D3
:1027E000FEC1060813C206081C8E0020F48D0020CE
:1027F0003F420F002EC206086D9B070833C2060831
:1028000038C20608CC8D002042C2060864C2060801
:1028100072C2060882C2060896C20608BCC2060832
:10282000CBC20608DCC20608EEC20608F8C20608DB
:10283000FCC2060800C306080CC3060811C306083C
:1028400014C3060818C3060828C306083DC30608B3
:1028500046C3060852C306082AC306083FC3060833
:1028600048C3060854C306085DC306088BC30608A0
:10287000A1C30608B4C30608CDC30608ECC3060806
:10288000FAC3060806C4060814C4060832C40608BB
:102890004CC4060860C406087BC4060890C4060839
:1028A000A5C40608B6C40608CAC40608EEC40608CD
:1028B00003C506081BC5060838C5060847C506082F
:1028C00052C506080047070858C506086FC5060820
:1028D00079C5060882C506088FC50608A8C506087A
:1028E000B2C50608BD460708012C04D1484B494A29
:1028F00049494A48B8E6032C04D1494B494A4A4958
:102900004A48B1E6052C01BF494B4A4A4A494B485F
:102910001FBF4B4B4B4A4C494C48A5E6002C7FF45B
:102920000CAE4B4B4B4A4C494C489DE624B94C4AA3
:102930004C4B1146104697E64B4B4C4A4C494D4880
:1029400092E624B9424B434A43494B488CE6012C5A
:102950005CD04A484A4B022C18BF1846A7E6002C08
:102960007FF4D4AE474B484A484949487CE6002C9E
:10297000D7D0484B484A4949494875E6022C04D10A
:10298000484B494A49494A486EE6032C01BF494B26
:10299000494A4A494A481FBF4A4B4B4A4B494C484F
:1029A00062E6D76857F82370A74202D151F8230096
:1029B0007DE60133C8E5474879E6E3B2464A20217F
:1029C0004648009366F0CAFF444870E6A3B2444A02
:1029D0002021424866F0C2FFF6E72346F7E763B2DC
:1029E000404AF5E723B2FBE72346F9E72046FDF727
:1029F00027FE3D4ACDE900012021384866F0AEFFB0
:102A0000E2E7364B00221C601A71DDE737484EE6DC
:102A1000BAC50608D0C50608DCC50608E8C506081C
:102A2000FBC506081BC606082AC606083BC60608DC
:102A300049C6060871C6060884C6060896C6060872
:102A4000ABC60608D3C60608E6C60608F8C60608DA
:102A5000EEC20608F8C20608FCC206080DC7060842
:102A600024C7060819C706082AC706084EC706085D
:102A70005DC706086AC706087EC70608B3C0060811
:102A8000A8C00608BAC006081CC3060821C3060869
:102A900024C306088AC7060892C7060896C7060810
:102AA00099C70608C7C70608D8C70608E2C70608B8
:102AB000E8C70608F4C7060803C8060807C80608DA
:102AC0000BC8060814C8060825C806082BC806083F
:102AD00031C80608B4160D0839C80608448E00200F
:102AE0007D370C085D1B080844C8060899C0060815
:102AF0002DE9F843124E2825124C376805FB07F3E1
:102B0000E05C114B53F82010C831FEF71BFF0F4B50
:102B10003846D3F800800E4BD3F80090FFF7F8FC4E
:102B20000246404649460DF096F83368094A05FBCF
:102B300003441168636A0B441360BDE8F88300BF67
:102B40008C8E0020104A0708C48E0020888E00203A
:102B5000788E0020B88E00202DE9F843124E2825EB
:102B6000124C376805FB07F3E05C114B53F820105B
:102B7000C839FEF7E7FE0F4B3846D3F800800E4BFE
:102B8000D3F80090FFF7C4FC0246404649460DF0DA
:102B900062F83368094A05FB03441168636A0B4411
:102BA0001360BDE8F88300BF8C8E0020104A070830
:102BB000C48E0020888E0020788E0020B88E0020E1
:102BC0002DE9F843DFF89C902823214CD9F80060C8
:102BD0007343312EE05C04EB03021E4B53F82010CC
:102BE0001BD90131FEF7AEFE1B4B30461F681B4B55
:102BF000D3F80080FFF78CFC0246384641460DF0C2
:102C00002AF8D9F800302821154A01FB034411683D
:102C1000636A0B441360BDE8F8839368002BE0D02F
:102C2000D768002257F822508D4207D1013B9342CA
:102C300016BF0132396857F82210D3E701329342A8
:102C4000F0D103F18043013B57F82310CAE700BFDE
:102C5000104A0708C48E0020888E0020788E00203D
:102C6000B88E00208C8E00202DE9F843DFF8989074
:102C70002823204CD9F800707B43312FE05C04EB13
:102C800003051D4B53F820101BD90139FEF75AFEDE
:102C90001A4B38461D681A4BD3F80080FFF738FCF2
:102CA0000246284641460CF0D6FFD9F800302821CC
:102CB000144A01FB03441168636A0B441360BDE8C6
:102CC000F883AA68002AE0D0ED68002355F8236055
:102CD0008E420AD16FF040411BB90A4455F82210C8
:102CE000D4E70B4455F82310D0E701339A42EDD1D5
:102CF0002968CBE7104A0708C48E0020888E002080
:102D0000788E0020B88E00208C8E0020312838B5B7
:102D1000044600F23D822823804D4343EB5C043B94
:102D2000912B00F29B80DFE813F09E00A800AD001D
:102D3000B2009200A300C100C600CB00D000D500B5
:102D4000DA00E900990099009301EE00F300990080
:102D500098019D01A2019900A701AC01C501BB0129
:102D6000B101B601B700BC00C001990099009900FB
:102D7000990099009900990099009900990099008B
:102D8000990099009900990099009900990099007B
:102D9000990099009900990099009900990099006B
:102DA000990099009900990099009900990099005B
:102DB000990099009900990099009900990099004B
:102DC000990099009900990099009900990099003B
:102DD000990099009900990099009900990099002B
:102DE00099009900990099009900DF00E400CA0158
:102DF000CF01D401D901DE01E301E801F701ED01C2
:102E00009900990099009900F201FC010102060263
:102E10000B02100215021A021F0224022902990055
:102E200099009900990099009900990099009900DA
:102E300099009900990099009900990099009900CA
:102E40009900990099009900990099002E02344B3D
:102E5000344A3549354801F04BFA18B9282303FBA9
:102E60000455A86938BD324B324A33493348F2E73A
:102E7000334B344A34493548EDE7354B354A36490A
:102E80003648E8E7364B374A37493848E3E7384BA6
:102E9000384A39493948DEE7394B3A4A3A493B48DA
:102EA000D9E73B4B3B4A3C493C48D4E73C4B3D4A85
:102EB0003D493E48CFE73E4B3E4A3F493F48CAE77F
:102EC0003F4B404A40494148C5E7414B414A42498E
:102ED0004248C0E7424B434A43494448BBE7444B5E
:102EE000444A45494548B6E7454B464A464947485E
:102EF000B1E7474B474A48494848ACE7484B494A3D
:102F000049494A48A7E74A4B4A4A4B494B48A2E736
:102F10004B4B4C4A4C494D489DE700BF104A0708AF
:102F200049C8060890C80608BBC80608EBC80608CA
:102F300025C90608B0CA06087FCB06084ACC060891
:102F40002DCD060884CD0608B0CD0608E2CD0608D2
:102F50001ECE0608E4CE060852CF0608B0CF0608FB
:102F60001CD0060810D10608C6D1060876D206087D
:102F700030D306086FD3060899D30608C1D30608D4
:102F8000FDD30608F1D4060884D5060841D6060804
:102F90001AD70608AAD70608F5D7060841D80608A2
:102FA00095D8060893D9060829DA0608CBDA060868
:102FB00090DB060885DC06081DDD0608AADD06088C
:102FC0003ADE060833DF0608C6DF060855E00608C5
:102FD000EAE0060855E106088DE10608CCE106089E
:102FE0000DE206086FE206089FE20608D1E2060835
:102FF00009E306086CE306089BE30608CBE3060832
:1030000005E406087BE40608C7E40608FBE40608B6
:1030100044E50608CCE506081FE6060863E6060850
:10302000B1E606083EE7060893E70608E2E7060869
:1030300023E80608C8E8060811E9060863E9060857
:10304000B6E9060867EA0608B4EA060807EB0608C8
:10305000504B514A51495248FDE6524B524A53494E
:103060005348F8E6534B544A54495548F3E6554BF8
:10307000554A56495648EEE6564B574A574958481E
:10308000E9E6584B584A59495948E4E6594B5A4AD7
:103090005A495B48DFE65B4B5B4A5C495C48DAE6D1
:1030A0005C4B5D4A5D495E48D5E65E4B5E4A5F49D2
:1030B0005F48D0E65F4B604A60496148CBE6614BB0
:1030C000614A62496248C6E6624B634A63496448A2
:1030D000C1E6644B644A65496548BCE6654B664A8F
:1030E00066496748B7E6674B674A68496848B2E689
:1030F000684B694A69496A48ADE66A4B6A4A6B4956
:103100006B48A8E66B4B6C4A6C496D48A3E66D4B67
:103110006D4A6E496E489EE66E4B6F4A6F49704825
:1031200099E6704B704A7149714894E6714B724A46
:10313000724973488FE6734B734A744974488AE640
:10314000744B754A7549764885E6764B764A7749D9
:10315000774880E6774B784A784979487BE6794B1F
:10316000794A7A497A4876E67A4B7B4A7B497C48A9
:1031700071E67C4B7C4A7D497D486CE67D4B7E4AFE
:103180007E497F4867E67F4B7F4A8049804862E6F8
:10319000804867E659EB0608DEEB060829EC0608CE
:1031A00073EC0608C4EC060832ED060872ED06085A
:1031B000B5ED0608F6ED06087DEE0608CCEE06082D
:1031C0000CEF06084EEF0608E4EF060838F0060894
:1031D00078F00608C8F006082DF106086EF106081A
:1031E000A0F10608D6F106083BF206087FF20608B1
:1031F000BBF20608FBF206086BF30608C1F30608EB
:10320000FFF306083DF4060850F50608EDF506083C
:1032100084F606081EF7060873F70608A5F70608E1
:10322000D7F706080AF8060879F80608A3F806088A
:10323000DDF8060821F9060862FA06081DFB0608F3
:10324000CDFB060889FC0608DAFC06080FFD060817
:1032500044FD060889FD0608F9FD060841FE06083A
:1032600086FE0608C8FE060831FF060864FF060849
:10327000A0FF0608DFFF0608430007086F000708E5
:10328000AA000708D50007081E010708450107081E
:103290006B0107088F010708EE01070822020708E3
:1032A0004F02070886020708DA0207080203070828
:1032B00068030708D3030708150407084404070830
:1032C00073040708AE04070852050708A505070898
:1032D000F905070851060708A0060708D1060708E0
:1032E0000A07070848070708E5070708430807080B
:1032F00092080708E6080708190907083F090708A0
:103300006209070898090708950A0708130B0708B8
:10331000930B07081F0C0708E50C0708650D070845
:10332000E40D07086B0E0708EF0F0708E010070809
:10333000A2110708771207084D130708C8130708DA
:103340003E140708D014070889150708E615070872
:1033500045160708A716070854170708C1170708D6
:103360003A180708D118070873190708E41907085D
:103370004F1A0708D21A0708891B0708F51B070808
:10338000651C0708D91C0708791D0708D91D0708FF
:10339000441E0708B4160D08312838B5044600F25B
:1033A0003D822823804D4343EB5C043B912B00F28C
:1033B0009B80DFE813F09E00A800AD00B2009200F1
:1033C000A300C100C600CB00D000D500DA00E900A0
:1033D000990099009301EE00F300990098019D0176
:1033E000A2019900A701AC01C501BB01B101B60161
:1033F000B700BC00C001990099009900990099009C
:1034000099009900990099009900990099009900F4
:1034100099009900990099009900990099009900E4
:1034200099009900990099009900990099009900D4
:1034300099009900990099009900990099009900C4
:1034400099009900990099009900990099009900B4
:1034500099009900990099009900990099009900A4
:103460009900990099009900990099009900990094
:10347000990099009900DF00E400CA01CF01D4014E
:10348000D901DE01E301E801F701ED01990099009E
:1034900099009900F201FC01010206020B021002E0
:1034A00015021A021F0224022902990099009900AC
:1034B0009900990099009900990099009900990044
:1034C0009900990099009900990099009900990034
:1034D00099009900990099002E02344B344A3549DD
:1034E000354800F005FF18B9282303FB0455686828
:1034F00038BD324B324A33493348F2E7334B344A12
:1035000034493548EDE7354B354A36493648E8E722
:10351000364B374A37493848E3E7384B384A394958
:103520003948DEE7394B3A4A3A493B48D9E73B4B01
:103530003B4A3C493C48D4E73C4B3D4A3D493E4828
:10354000CFE73E4B3E4A3F493F48CAE73F4B404AE0
:1035500040494148C5E7414B414A42494248C0E7DA
:10356000424B434A43494448BBE7444B444A4549DC
:103570004548B6E7454B464A46494748B1E7474BB9
:10358000474A48494848ACE7484B494A49494A48AC
:10359000A7E74A4B4A4A4B494B48A2E74B4B4C4A98
:1035A0004C494D489DE700BF104A0708A71E070871
:1035B000CF1E0708E31E0708FB1E0708111F070898
:1035C000301F0708401F0708521F0708641F07081D
:1035D000911F0708A31F0708BA1F0708D41F070871
:1035E000F71F07080C2007082520070844200708B4
:1035F0005A2007086D200708802007089120070837
:10360000BA200708D3200708EF2007081021070871
:103610003F2107085821070871210708942107084E
:10362000C7210708DC210708F5210708152207082C
:1036300037220708492207085D2207087522070874
:1036400095220708A8220708B9220708CD220708F3
:10365000EF220708FF22070811230708262307087F
:10366000542307086D23070887230708A3230708A7
:10367000CB230708DB230708F123070806240708E4
:103680002A2407083B2407084A2407085F24070860
:1036900087240708AC240708C1240708E124070889
:1036A000FE2407081F250708332507084F250708AC
:1036B0007925070891250708A9250708C3250708C4
:1036C000EA250708F92507080F2607082326070813
:1036D0004C2607085D26070875260708504B514AF7
:1036E00051495248FDE6524B524A53495348F8E675
:1036F000534B544A54495548F3E6554B554A56499D
:103700005648EEE6564B574A57495848E9E6584B53
:10371000584A59495948E4E6594B5A4A5A495B486C
:10372000DFE65B4B5B4A5C495C48DAE65C4B5D4A32
:103730005D495E48D5E65E4B5E4A5F495F48D0E62C
:103740005F4B604A60496148CBE6614B614A624920
:103750006248C6E6624B634A63496448C1E6644B0B
:10376000644A65496548BCE6654B664A66496748F0
:10377000B7E6674B674A68496848B2E6684B694AEA
:1037800069496A48ADE66A4B6A4A6B496B48A8E6E4
:103790006B4B6C4A6C496D48A3E66D4B6D4A6E49A4
:1037A0006E489EE66E4B6F4A6F49704899E6704BC3
:1037B000704A7149714894E6714B724A1846114635
:1037C0008FE6714B714A724972488AE6724B734AAE
:1037D0007349744885E6744B744A7549754880E6A8
:1037E000754B764A764977487BE6774B774A784936
:1037F000784876E6784B794A79497A4871E67A4B87
:103800007A4A7B497B486CE67B4B7C4A7C497D4805
:1038100067E67D4B7D4A7E497E4862E67E4867E6E4
:103820008B260708B4260708C7260708E0260708DE
:103830000427070843270708582707086C270708A5
:1038400088270708C7270708EC270708FE27070867
:103850001C2807084628070869280708832807083E
:10386000A2280708C8280708DE280708EC28070848
:10387000FE2807081A2907083029070846290708DB
:10388000622907088D290708A3290708B92907080D
:10389000CF290708FC290708112A0708272A070843
:1038A0003E2A0708652A0708772A0708892A070891
:1038B0009E2A0708D12A0708EB2A0708022B0708C7
:1038C000232B07086D2B0708922B0708B12B07083D
:1038D000D32B0708162C07082A2C0708422C0708A8
:1038E000612C07087C2C0708962C0708A62C0708D3
:1038F000BC2C0708CE2C0708DA2C0708E62C070892
:10390000F22C0708142D07082A2D07083D2D07085B
:103910004F2D07086D2D07087F2D07088E2D0708EE
:10392000A02D070890C40608A5C40608B6C406085A
:10393000CA2D0708FE2D0708142E07082F2E07088A
:10394000482E0708662E07087A2E07088D2E0708CE
:103950009F2E0708C32E0708D52E0708E52E070857
:10396000F72E0708242F07083F2F0708572F0708AF
:103970007C2F07089C2F0708AF2F0708C22F0708C6
:10398000D42F0708E22F0708F02F07081F30070879
:10399000373007084B300708653007089C300708A8
:1039A000BD300708D8300708F93007081232070879
:1039B000AB32070838330708D8330708F93307084C
:1039C0000E3407082334070835340708573407082E
:1039D0006E3407088134070895340708B83407089F
:1039E000CA340708DC340708EE3407080E35070828
:1039F00020350708323507084335070867350708BB
:103A0000793507088C3507089E350708BB35070848
:103A1000CB350708DB350708B4160D082DE9F04F44
:103A2000514B2822514D85B019682B68504E534395
:103A3000504C514FF35C2068072B40F090804F4A68
:103A40000CF009F94E4A396820680CF004F94D4B26
:103A50004D4A4E494E4800F04BFC2B68322102463D
:103A600001334C480091302165F078FF4A4B494AB8
:103A7000196820680CF0EFF8DFF83CB12868FFF710
:103A80008BFC03902868FEF743FDDFF830A1DBF8DC
:103A90000010074620680CF069F88146DAF800103B
:103AA00020680CF063F88046B9F1000F0AD0039942
:103AB000012003F0E3FEB0F5D57F8CBF002001208C
:103AC000C9F80D00B8F1000F0AD03946012003F003
:103AD000D5FEB0F58F7F8CBF00200120C8F80D0007
:103AE000039ADBF8001020680CF0B5F83A46DAF8D3
:103AF000001020680CF0AFF82868FFF707F90023E2
:103B00002649274A0B70137018B103780BB1FDF7E3
:103B1000D0FC244B282720681968204A0CF09BF819
:103B2000214B1F4A196820680CF095F82B68206813
:103B300007FB0363D3F81C801C4B19680CF016F8C4
:103B40002B6880F8018007FB0366194B2068F56934
:103B500019680CF00BF8457005B0BDE8F08F154AF8
:103B60000CF079F8134A6EE7688E00208C8E0020E6
:103B7000104A0708888E0020648E0020ED35070863
:103B8000F8350708033607081E36070832360708D7
:103B9000423607089C8D0020748E0020C0F00FC0B4
:103BA00000F00FC0808E00207C8E0020708E0020E0
:103BB0006C8E0020B4160D08848E0020788E0020B4
:103BC00038B50A4C0A4D236828220133322B28BF0E
:103BD0000023236002FB03531B6A13B1984700289C
:103BE000F1D0BDE83840FFF719BF00BF8C8E002030
:103BF000104A070870B50A4C28260A4D2368013B75
:103C0000312B28BF3123236006FB03531B6A13B1FA
:103C100098470028F2D0BDE87040FFF7FFBE00BF14
:103C20008C8E0020104A07082DE9F0430446ADF5BC
:103C3000097D10F0FCFE03460028FAD1DE4ADF4978
:103C40001060DF4A1060282202FB03F0085CA042EB
:103C500003D00133322BF7D10023DA4A00246FF06E
:103C60006906202513600DF095FD6520462700F0BC
:103C700069FB6FF04B080FF06FFA90234FF4E67278
:103C80004A210A204FF01009CDE900440EF0C0FC93
:103C90002146252206A865F0EFFFCB4ACB4B2046F4
:103CA000CDE90623CA4BCDF821300DF045FDCDF806
:103CB000290020460DF0E4FCC64B21462522CDF814
:103CC0002D0010A88DF83560CDF831308DF83640D4
:103CD0008DF837508DF8384065F0CEFF4FF4907373
:103CE0000120ADF84030BC4B1193BC4BCDF84930AE
:103CF0000DF0F4FCCDF851000DF0B2FC6FF0730341
:103D000025222146CDF855001AA88DF85D308DF892
:103D10005E408DF85F508DF8604065F0ADFFB049B2
:103D20002046B04BCDE91A13AF4BCDF871300DF0F2
:103D300003FDCDF8790020460DF0A2FCAB4B2146E7
:103D40002522CDF87D0024A88DF88560CDF881303E
:103D50008DF886408DF887502D258DF8884065F0C8
:103D60008BFFA34B02208DF8984024936FF0230320
:103D70008DF897309F4BCDF899300DF0DDFCCDF8E4
:103D8000A10002200DF07CFC9B4B21462522CDF8A2
:103D9000A5002EA8CDF8A9308DF8AD708DF8AE40F5
:103DA0008DF8AF508DF8B04065F066FF9348944BA6
:103DB000CDE92E03934B0320CDF8C1300DF0BCFCB0
:103DC000CDF8C90003200DF05BFC8F4B2146252266
:103DD000CDF8CD0038A88DF8D7500125CDF8D130D9
:103DE0008DF8D5708DF8D640884F8DF8D84065F0A5
:103DF00043FF874B28468DF8E1503993CDF8E970A1
:103E00008DF8ED508DF8EE408DF8EF408DF8F040D4
:103E10000DF064FCCDF8F1000DF02AFC1A232146C8
:103E20002522CDF8F50042A88DF8FD808DF8FE50D2
:103E30008DF8FF308DF8004165F01EFF754B204670
:103E40008DF809514393CDF811710DF075FCCDF843
:103E500019010DF00DFC21462522CDF81D014CA8BD
:103E60008DF825818DF826518DF827918DF8284100
:103E700065F002FF684B20468DF831514D93CDF827
:103E800039710DF059FCCDF841010DF0F1FB2146DF
:103E90002522CDF8450156A88DF84D814FF03A08FE
:103EA0008DF84E518DF84F914FF028098DF8504103
:103EB00065F0E2FE4FF494732046CDF861712C2733
:103EC000ADF85831554B8DF8655157938DF86641D3
:103ED0008DF867418DF868410DF02EFCCDF8690131
:103EE00028460DF0CDFB21462522CDF86D0160A8B6
:103EF0008DF875718DF876518DF877718DF8784160
:103F000065F0BAFE464B20468DF88D516193454BC6
:103F10008DF88E41CDF889318DF88F418DF8904123
:103F20008DF880910DF008FCCDF8910120460DF040
:103F3000A7FB3D4B21462522CDF895016AA8CDF877
:103F400099318DF89D818DF89E418DF89F718DF886
:103F5000A04165F091FE354B20468DF8B5516B932D
:103F6000334B8DF8B641CDF8B1318DF8B7418DF8AE
:103F7000B8418DF8A8910DF0DFFBCDF8B9012046CE
:103F80000DF07EFB2B4B21462522CDF8BD0174A8F8
:103F9000CDF8C1318DF8C5818DF8C6418DF8C77156
:103FA00016278DF8C84165F067FE2023DFF888806A
:103FB00028468DF8D03141E0AC8E0020104A070829
:103FC000B88E00208C8E002028000067000A002494
:103FD00055360708F53B000800AA00248436070878
:103FE000280000680040012464360708C13B00082F
:103FF0002800010273360708B91100082800007E66
:10400000005200DC7A360708A5240008813607082C
:10401000001600520016006E0016007F005A00972E
:104020000016009786360708692C00080090019753
:104030006F360708C12B0008B4160D08514BCDF898
:10404000D98175930DF04AFBCDF8E1010DF010FB1D
:104050004D4B25222146CDF8E5017EA88DF8ED6176
:10406000CDF8E9318DF8EE418DF8F0418DF8EF7122
:1040700065F002FE20232846CDF801828DF8F83144
:10408000424B7F930DF02AFBCDF809020DF0F0FAB8
:104090008DF8156203AE3E4B8DF816428DF818422E
:1040A000B460CDF80D023046CDF811328DF817729C
:1040B000C6E90044374C26600BF04AFD06A920688B
:1040C0000BF060FD10A920680BF05CFD324B1AA9C3
:1040D000186020680BF056FD24A920680BF052FDF3
:1040E0002EA920680BF04EFD60A920680BF04AFD58
:1040F0002A4B6AA9186020680BF044FD284B74A96C
:10410000186020680BF03EFD264B7EA918602068E1
:104110000BF038FD244B38A9186020680BF032FDF5
:10412000224B42A9186020680BF02CFD204B4CA9B3
:10413000186020680BF026FD1E4B56A918602068F9
:104140000BF020FD1C4B1D4C186030460BF0F9FDA8
:10415000FFF764FC25701A4D30460BF0C3FE60B1CA
:104160002B683BB1FEF78AF8002323700DF5097D1B
:10417000BDE8F083322056F0D3F8002056F0D0F896
:10418000EAE700BF001600C8592B0008003401C838
:10419000F12A0008888E0020748E0020708E002086
:1041A0006C8E0020688E0020648E0020848E00209B
:1041B000808E00207C8E0020788E0020D45001203C
:1041C000AC8E00200420FFF72FBD000030B5014465
:1041D0004FF0FF33084D814201D1D84330BD10F874
:1041E000012B5340082243F30004013A04EA05047A
:1041F00084EA5303F7D1EEE72083B8ED38B50446DF
:104200000D461046194654B1054A01232161C4E9FF
:1042100000231823C4E90235FFF7D8FF606138BDD9
:1042200043464731A0B102680A4B9A420FD1436816
:10423000012B0CD18368182B09D1D0E90323B3EBF0
:10424000820F04D18B428CBF0020012070470020D8
:10425000704700BF4346473108B50C4B186800282B
:1042600004DBC0B202280ED904280CD06E20FDF762
:104270000FFB0528034607D8022BC0B203D9031F42
:1042800058425841800008BD0020FCE764820020AD
:104290000138C0B203289ABF024B53F820000248ED
:1042A000704700BF58FF07080B47070808B5FFF71E
:1042B000D3FF0138C0B2032896BF024B024853F81F
:1042C000200008BD48FF07089055070870B50D4647
:1042D000044650B149B1FFF7E9FF29460346034AB6
:1042E0002046BDE8704065F039BB70BD93550708A6
:1042F000F8B506460D4614461F46FFF7ADFF0228E7
:1043000005D0042810D001280CBF2C4634460CB12F
:1043100023783BB90DB12B7843B9054B002E14BF60
:1043200034461C462046F8BD3C46F0E72C46F9E7EB
:1043300097C0060808B5FFF78FFF013818BF0120A6
:1043400008BD0000B0F5DE7F10B5044601D310486B
:1043500010BDFFF781FF022813D0042813D00128D5
:1043600013D10C4B53F8240010B10378002BEFD17C
:10437000084B53F824000028E9D00378002BE6D03E
:10438000E6E7054BEEE7054BECE7054BEAE700BF38
:1043900097C00608480D08085806080868FF07086F
:1043A000381408082DE9FF410D46044608B301B34F
:1043B0006F20013DFDF76CFA804670202544FDF723
:1043C00067FA07467120FDF763FA06467220FDF78B
:1043D0005FFA00236A46CDE9026020468DF80F306F
:1043E000CDE90087A84202D012F8013B23B900238F
:1043F000037004B0BDE8F08100F8013BF2E7000073
:104400007FB50022CDE90022CDE90222C0B10138FA
:104410001B4C10F8013F9BB10F2A11D0E15C01F059
:104420000301022908BF203BDBB2E15C49071FD131
:1044300003F0FD012D291BD010F8013F002BEDD119
:10444000DDE9016500996F20039CFDF77BFA314699
:104450007020FDF777FA29467120FDF773FA21469F
:104460007220FDF76FFA04B0BDE87040FDF7F6BEAC
:1044700002F110010132694401F8103CC9E700BFA4
:1044800075EC0E0808B57320FDF702FAB0FA80F05B
:10449000400908BD10B50C46011E4FF0730018BF4F
:1044A0000121FDF74FFA1CB1BDE81040FDF7D6BE63
:1044B00010BD000070B594B00022DFED1D6A6C469F
:1044C000F0EC017AB0EEE77AB4EE667AF1EE10FA2B
:1044D0002AD8254613463BB135ED017A5E1EF4EE2F
:1044E000C77AF1EE10FA1BD414AD0132043405EB97
:1044F0008303914243ED147AE2D14B1005EB830222
:1045000012ED140ACA0709D405EB830353ED157A9B
:1045100030EE270AF6EE007A20EE270A14B070BDBE
:10452000334685ED017AD6E79FED020AF6E700BF34
:10453000FFFF7F7F0000C07F002930B5044695B0A3
:1045400005DC9FED396AB0EE460A15B030BD14297E
:10455000DFED365A19DC042918DC00EB81039FEDEE
:10456000347AF0EC017AF0EEE76AF4EE656AF1EE87
:1045700010FAE6D8984237EE277AF2D107EE901A71
:10458000F8EEE77A87EE276ADDE714212046FFF789
:1045900091FFB0EEC05AB0EE406AB4EE655AF1EE4B
:1045A00010FACED86A4604EB810523461046F3EC98
:1045B000017A77EEC67AAB42F0EEE77AE2EC017A66
:1045C000F5D1FFF777FFF0EEC07AF4EE657AF1EE01
:1045D00010FAB6D8DFED177A002320EE270ADFEDB8
:1045E000167AB4EEE70AF1EE10FA44BF9FED137AA3
:1045F000E5EE077A9FED0E7A48BFB0EE670AF4EC5D
:10460000016A76EEC67AF0EEE77AB4EEE70AF1EEEA
:1046100010FAA4BF37EE267A0133AC42EFD1002B5B
:1046200091D007EE903AABE70000C07FFFFF7F7F9D
:10463000000000001B0DA640BD3786356F12833A7F
:1046400008B50E4B93ED000A5EF012FB0C4B93ED98
:10465000007A0C4BD3ED007A0B4B37EE277AD3ED73
:10466000007A0A4B77EE277AD3ED006A67EE807AFC
:1046700097EEA67AB0EE470A08BD00BF4091002031
:104680009C820020A0820020988200208882002046
:1046900020302A4B2A4A002103EB4003294870B5F9
:1046A0002DED048B86B033F921400131B0EC017A55
:1046B00007EE904AB1F5007FF8EEE77A67EE877A69
:1046C000E2EC017AEFD168469FED1F8A53F044FE79
:1046D00000231E4A68461A49F0EE488A53F01CFE31
:1046E0001B4B9FED1C9A1D6805F5527405F55C7611
:1046F00094ED000A083454ED010A5EF04BFC20EE04
:10470000090AA642A0EE008AF2D1B0EE480A5EF095
:104710008DFAB0EE408AD5EDD60A95EDD70A5EF057
:104720001BF9F0EE407AB0EE480AF1EE670AA7EE08
:10473000E80A06B0BDEC048B70BD00BF48910020B4
:10474000C8A10020C8A9002000000000C8990020CE
:10475000948200200000803B14290B460246DFEDC6
:10476000237AA8BF142310B500EB83042DED028B30
:10477000A24233D107EE103AB8EEC77AC7EE876A85
:10478000DFED1B7AB0EEE68AB4EE678AF1EE10FA3E
:1047900029D8DFED187AB4EEE78AF1EE10FA22D4C8
:1047A0000029DFED127A07DDB0EC017A37EE667A88
:1047B000A042E7EE077AF7D1013B00EE103AB8EEDF
:1047C000C00A87EE800A5EF031FADFED0B7A60EE08
:1047D000277A87EE880ABDEC028B10BDB2EC017A15
:1047E00077EE877AC4E79FED050AF4E70000000042
:1047F000FFFF7F7F08E53C1E0000C8420000C07F2D
:104800002DE9F041041E0E462DED048B47DD9FED92
:10481000278A142C2546DFF8A480F0EE488AA8BF2A
:1048200014250027DFED229AB8EC019AF0EEC97A40
:10483000F4EE697AF1EE10FA31D8B0EE490A013798
:104840005EF04EFA78EE808AB0EE490A5EF010FA19
:10485000BD4238EE008AE7D1F0EE480AB0EE680AB1
:104860005EF0DCF807EE905A124BF8EEE77A80EE35
:10487000277A83ED007A46B1042C06DDF5EE007A46
:10488000B4EEE77AF1EE10FA09D4F0EE480AB0EE91
:10489000680ABDEC048BBDE8F0415EF05DB8BDEC8C
:1048A000048B9FED050ABDE8F08100BF0000000009
:1048B000FFFF7F7F788200200000C07FC8B100200A
:1048C00038B514202DED048BFCF7E2FF204B186067
:1048D0001520FCF7DDFF1F4B18601620FCF7D8FFF2
:1048E0001D4B18600820FCF7D3FF11F027FF11F0D3
:1048F00023FB1020FCF7CCFFC0F164014BF68032A3
:104900004FF44070C9B251F08BFA10B1134855F012
:10491000FFFEB6EE008A124D00249FED129ADFEDE5
:10492000128A07EE904A0134B8EEE70A20EE090A2F
:1049300080EE280A5EF09CF9B4F5007FF0EE487A2C
:10494000E0EE487AE5EC017AEBD1BDEC048B38BDA2
:10495000A08200209C82002098820020281B08084A
:10496000C8A90020DB0FC9400080FF434FF48862D4
:104970004FF0FF330849094800B5C1B059F039F983
:10498000024630B10649684665F01CF8684655F0A5
:10499000BFFE41B05DF804FB48910020984801201B
:1049A000411B08082DE9F04106461D46284F00230B
:1049B0000024DFF8B4801F203C60C8F80030FCF70A
:1049C00067FFB04203D99FED230ABDE8F0812020A4
:1049D000FCF75EFFB042F6D3304601F0DBFE002864
:1049E000F1D0142D30461C4EA8BF1425012DB8BFA0
:1049F000012501F0C9FF194B01220220197802F0AC
:104A000021FC4FF408622146154865F035F9013460
:104A1000FFF7ACFF0020FFF73BFEA542A6EC010A22
:104A2000F5D129460C48FFF787FDB0EEC07ADFEDDF
:104A30000D7AB4EE677AF1EE10FAC4D8B5EEC00A7A
:104A4000F1EE10FABFD9012388ED000A3B60BCE704
:104A5000389100200000C07F18B20020AD820020F5
:104A600048910020FFFF7F7F34910020014B1868A0
:104A7000704700BF38910020014B1868704700BF95
:104A80007C820020024B93ED000AD3ED010A7047AF
:104A900080820020014B93ED000A70474091002076
:104AA000014B93ED000A70473C910020014B93EDC0
:104AB000000A704744910020014B93ED000A7047B3
:104AC00088820020102008B5FCF7E2FEC0F16400E7
:104AD000632824D81020FCF7DBFE45F6C0536FF0A6
:104AE000EF0202FB00306423B0FBF3F0C0B2C0F170
:104AF000EF03B5EE087AF3EE040A07EE903AB2EE51
:104B0000040AF8EEE77A67EE877AC7EEA00A5EF04D
:104B10000DF8044BD3ED007A20EE270A08BDEF20F4
:104B2000E5E700BF90820020102008B5FCF7B0FE3A
:104B3000C0F16400632824D81020FCF7A9FE45F6D4
:104B4000C0536FF0EF0202FB00306423B0FBF3F0C0
:104B5000C0B2C0F1EF03B5EE087AF3EE040A07EE37
:104B6000903AB2EE040AF8EEE77A67EE877AC7EE7B
:104B7000A00A5DF0DBFF044BD3ED007A20EE270A9C
:104B800008BDEF20E5E700BF8C82002038B5044661
:104B9000002849D0254B264D1B7828682371254BCA
:104BA00020601B786371244B1B78A37101F01CFDFE
:104BB000E071003818BF01202072286801F09EFDC6
:104BC0001E4BE0601B682361FFF77CFF84ED050A44
:104BD000FFF7AAFF1A4B84ED060A1B68E361194B25
:104BE0001B682362184B1B686362184B1B68A36227
:104BF000174B1B68E362174B1B682363164B1A683D
:104C00005B686263A363154B1A685B68E2632364A5
:104C1000134B1A685B686264A364124B1B68E364FD
:104C2000114B1B7884F8503038BD00BF1E91002016
:104C3000209100201D9100201C9100207C820020EA
:104C400088820020449100203C910020788200203E
:104C5000309100202C91002070820020688200207A
:104C600080820020249100202891002008B50D4B5F
:104C700093ED000A5EF034F80B4BD3ED007A0B4B4A
:104C800093ED007A0A4B77EE877A93ED007A094B21
:104C900077EE877A67EE807A93ED000A27EE800A36
:104CA00008BD00BF409100209C820020A08200200F
:104CB00098820020888200202DE9F04F06464FF0B0
:104CC0007E541046DFF8BCB2964ADFF8BC92DFF89B
:104CD000BCA2954FDFF8B8822DED068B85B014602D
:104CE000DBF8004003930023C9F80040CAF80040F5
:104CF000CC1A019118BF01248C490290C01A0C7083
:104D000018BF01208A49039D08709FED8A8A142DDF
:104D1000894A8A49A8BF142582ED008A0B70DBF806
:104D2000042087493B60C9F80420CAF804200B60BE
:104D3000844A854B88ED008A16601D704EBB01F0D9
:104D40006DFE804A04461F201460FCF7A1FD8442DA
:104D500021D27E4B7E4A83ED008A7E4B7E4983EDD5
:104D6000008A7E4B13607E4A13607E4A13607E4A3F
:104D70001360DBF80020DBF804300A604B60C9F8F0
:104D80000020C9F80430CAF80020CAF80430002313
:104D900080E13446D7E72020FCF77AFD8442D8D85A
:104DA000204601F0F7FC0028D3D016B1204601F0D0
:104DB0006DFD0326DFED6DAADFF8B4A14FF0000B07
:104DC000DFF8B0915D454CDC29466948FFF7B4FB3C
:104DD00029466848F0EE409AFFF7AEFB002E2846C1
:104DE000F0EE408AD4BF00210121FFF709FD039BAB
:104DF000DFF87091B0EE40AA012B89ED000A50DD7A
:104E000029465B48FFF7A8FC29465A4888ED000A66
:104E1000FFF7A2FCF0EEE97A9FED579A464BF4EECD
:104E2000497A83ED000AF1EE10FA17D8B0EEE87A6D
:104E3000B4EE497AF1EE10FA10D8B0EECA7AB4EEB8
:104E4000497AF1EE10FA09D8F5EEC09AF1EE10FAAF
:104E500004D9F5EEC08AF1EE10FA27D836B3013E38
:104E6000AAE7FFF783FD0020FFF712FC0120B0EE58
:104E7000409AF0EE608AFFF70BFCF0EE607AAAEC45
:104E8000010AF0EE6A0AA9EC019A38EEE70A5DF031
:104E9000ABFE3A4B03EB8B020BF1010B82ED000AE8
:104EA00090E79FED240A88ED008AB3E7F4EE497A93
:104EB000DFF898B0DFF89CA0254EF1EE10FADFF88D
:104EC000A880254D17D8F0EEE87AF4EE497AF1EE95
:104ED00010FA10D8B0EECAAAB4EE49AAF1EE10FA50
:104EE00009D8F5EEC09AF1EE10FA04D9F5EEC08AB1
:104EF000F1EE10FA50D8224B194A8BED008A13605C
:104F0000204B8AED008A1A685B6886ED008A89ED7D
:104F1000008A88ED008A2A606B6005B0BDEC068BC4
:104F2000BDE8F08F788200207C8200201D91002057
:104F30001C910020000000002C91002028910020EE
:104F400024910020209100201E91002090820020BA
:104F5000888200208C820020808200200000C07F98
:104F600044910020409100203C910020DB0FC9407B
:104F700068B2002018B20020FFFF7F7FC8B1002078
:104F80000000F0C2E0BB06087082002068820020AA
:104F9000309100206042A20DF5EE408A5FED037A69
:104FA000019BF1EE10FA47FEA87A89EEA77A86ED0A
:104FB000007A23B1384A3146204611F079F9DFED05
:104FC000377A9FED377A68EEA78ADFED366A69EEA9
:104FD000A79AD9ED007A96ED000A67EE877ACAEDB6
:104FE000008ACBED009A87EEA67A88ED007A5DF014
:104FF0006DFDF3EE047A2C4B20EE270A83ED000AB8
:10500000FFF734FEF0EE408AFFF71AFB274BA8EEBD
:10501000880AC3ED018AC5ED018A83ED000A029B6F
:1050200085ED000A43B1F0EE680A204612F08EFAD0
:1050300085ED000AC5ED010A1D4B95ED007AD5ED11
:10504000017A83ED007AB0EEC77AC3ED017AB4EE4F
:10505000497AF1EE10FA3FF69AAEF0EEE77AF4EE06
:10506000497AF1EE10FA3FF692AED6ED007AF0EE04
:10507000E77AF4EE497AF1EE10FA3FF688AED9ED10
:10508000007AF0EEE77AF4EE497AF1EE10FA94BF86
:10509000012300233B6040E740910020EA40563C5A
:1050A00000003443DB0F494044910020708200200F
:1050B00068820020000000002DE9F04F2DED028BEA
:1050C00085B01E460546CDE9021200BB01F0A6FCE4
:1050D00004461F20FCF7DCFBA0421AD900239A4AA1
:1050E00013609A4A13609A4B9A4A13609A4A136063
:1050F0009A4A13609A4A13609A4A9B4B1168526805
:1051000019605A6005B0BDEC028BBDE8F08F044613
:10511000DFE72020FCF7BCFBA042DFD3204601F0F4
:1051200039FB0028DAD015B1204601F02DFC142EF1
:105130004FF00307A8BF14268C4B4FF0000ADFF88E
:105140004CB20193B2453BDB31468848FFF7F4F996
:1051500031468748F0EE408AFFF7EEF9002F3046DF
:10516000B0EE408AD4BF00210121FFF749FBB0EE29
:10517000E87ADFED807ADFF8E481B4EE677A88EDD3
:10518000000AF1EE10FA17D8B0EEC87AB4EE677ADA
:10519000F1EE10FA10D8B0EEC00AB4EE670AF1EEE4
:1051A00010FA09D8F5EEC08AF1EE10FA04D9B5EE7E
:1051B000C08AF1EE10FA61D8002F5FD0013FBBE743
:1051C000FFF7D4FB0020FFF763FA0120F0EE408ADE
:1051D000B0EE608AFFF75CFA019BA3EC010A78EE5F
:1051E000607A0193624B17EE900A03EB8A03C3EDDA
:1051F000008AFBF725FA4EA3D3E90023FBF7C2F898
:10520000FBF76EFDDFED5C0A00EE100A5DF0E2FBDD
:1052100010EE100AFBF714FA45A3D3E90023FBF7BD
:10522000AFF8FBF75DFD0546FBF70AFA80468946B5
:1052300041A3D3E90023FBF7CDFC70B140464946BA
:105240003FA3D3E90023FBF79DF8FBF749FD054693
:105250000AF1010A4BF8045B74E735A3D3E9002394
:1052600040464946FBF7D4FC0028F1D04046494669
:1052700033A3D3E90023FBF783F8E6E7B5EE408AD2
:10528000DFED3E7A334D029BF1EE10FA47FE887A4D
:1052900088EEA77A85ED007A23B1304A2946204668
:1052A00011F006F8DFED367A274B68EEA78AD8F8BA
:1052B000000028EE278AC3ED008A244B83ED008A84
:1052C000FBF7BEF900222F4BFBF712FA18A3D3E924
:1052D0000023FBF737FBFBF703FD214B95ED000A9D
:1052E00018605DF0F3FBF3EE047A1B4B1E4D20EECD
:1052F000270A83ED000AFFF7B9FCB0EE408AFFF7FA
:105300009FF9DFED217A039BA8EE270A85ED018A3C
:1053100085ED000A002B3FF4F5AEF0EE480A20467A
:1053200012F014F985ED000AC5ED010AEAE600BFA6
:10533000182D4454FB210940182D4454FB2109C069
:10534000182D4454FB211940908200208C820020AB
:105350000000C07F888200204491002040910020FE
:105360003C910020E0BB06088082002068B200204B
:1053700018B20020FFFF7F7FDB0FC9406042A20D03
:10538000EA40563C0080664000000000C8B10020A2
:10539000B5EEC00A092008B5F1EE10FA2DED048B28
:1053A000F0EE408A48BFDFED1C8A20EEA08AFCF7B1
:1053B0006FFA07EE900A0920F8EE677AB0EE489A85
:1053C00078EEE77AA7EEA79AFCF762FA07EE900A62
:1053D000F8EE677A77EEA87AA7EEA78AB5EE408A4C
:1053E000F1EE10FA08BF9FED0D8A89EE080A5DF014
:1053F0001DFCDFED0B7AB4EE670ABDEC048BF1EE19
:1054000010FA37FE800AF7EE007A30EE277A37EE90
:10541000C00A87EE000A08BD000000006042A20D2D
:1054200077BE7F3F42F22F7070470000F0B5784E94
:105430000D46784F002406EB40062DED088BB6EEA6
:10544000008A87B0DFED74BA9FED74BADFED74AAFD
:105450009FED74AA07EE904AB0EE6A9A36F92430AE
:105460000134F8EEE77A08EE903A67EEAB7AF8EEA0
:10547000E88AC7EE8B9AB0EE690A5DF0F9FBA0EE00
:10548000489A39EEA90A5DF0F3FBB4F5006FA0EE7F
:105490000A9A68EE898AE7EC018ADBD121466846E0
:1054A00052F05AFF034628B19FED5F0A07B0BDECEA
:1054B000088BF0BD5D4A684656494FF4957452F02A
:1054C0002BFF5B48DFED5B8A2346024640F22B212F
:1054D000D2ED017A083212ED027A67EEA77AE7EE92
:1054E000077AF4EEE87AF1EE10FAC8BF1C4603F131
:1054F0000103C8BFF0EE678A8B42E9D100239FED1C
:105500004D7A4FF49572E61C40F22B21D71CD0ED5A
:10551000007AD0ED016ABC4201D8964206D267EE0D
:10552000A77A0133E6EEA67A37EE277A0132083001
:105530008A42EBD1F7EE006AF4EEE68AF1EE10FA59
:1055400000D913B93C4B2B60AEE707EE903AF8EE6A
:10555000677A87EE270A80FE260A88EE800A5DF0C9
:10556000B5FA6FF49573E318F2EE047AFE2B20EE91
:10557000270A85ED000A45D804F100522B4BB0EE06
:10558000006A013A03EBC201D1ED017A91ED007A94
:1055900067EEA77AD1ED046AE7EE077A91ED057A16
:1055A00027EE077AA6EEA67AF0EE676AE8EEC66AFC
:1055B0009FED226A76EE876AF0EEE65AF4EEC65A5E
:1055C000F1EE10FA1EDD77EEC77A67EE887A87EE85
:1055D000A67AB4EEC87AF1EE10FA16DCFEEE007A86
:1055E000B4EE677AF1EE10FA48BFB0EE677A07EED4
:1055F000904AB8EE670ADFED127A30EE070A20EE25
:10560000270A53E79FED0B7AF1E7B6EE007AEEE753
:10561000803110C0801110C0DB0FC94000E0FF4492
:105620003D0AD73E0AD7A33D0000C07F80F10FC0DE
:10563000D0FA0FC0000000000000C8C208E53C1E00
:105640000080BB41094B30B51B7863B150B1084DA8
:1056500004460FCD0FC40FCD0FC495E8070084E8B2
:105660000700012030BD1846FCE700BFB8B200209B
:10567000BCB20020000000002DE9F04304462DEDEF
:10568000048B83B0FFF7CEFE08EE100A24B3002788
:10569000B8EE488A7C4E4FF003087C4D2B223946E9
:1056A000601C377064F0E8FA052084F800806560BB
:1056B00084ED028AFCF7ECF8E06101F03FFD80B96F
:1056C0000127734D277037700FCC0FC50FCC0FC556
:1056D00094E8070085E8070003B0BDEC048BBDE843
:1056E000F083284601F0D2F8142054F00AFE4FF45B
:1056F0007A734FF480526749674858F07AFA054642
:10570000384601F0C3F86DB184F80080604D0FCCCD
:105710000FC50FCC0FC594E80700012385E80700EB
:105720003370D9E769462846FFF780FEF0EE408ADD
:1057300001A90120FFF77AFE9FED587AF0EEE87A92
:10574000F4EE477AF1EE10FA0FD8F0EEC06ADDED14
:10575000007AF4EE476AF1EE10FA0AD8DDED016A3C
:10576000F4EEE76AF1EE10FA03D9F0EE408ADDEDCF
:10577000017AF0EEE86AC4ED067AF4EE476AF1EEDB
:1057800010FA06D8B2EE087AF4EEC77AF1EE10FA03
:1057900002D502232370B9E778EEC87A9FED409ACC
:1057A000E069C4ED038AC4ED047A67EE897A87EE76
:1057B000887A84ED057A90B3FAF720FF804689460F
:1057C00018EE900AFAF73CFF02460B46404649465F
:1057D000FAF78EFF8046894618EE100AFAF730FF76
:1057E00002460B4640464946FBF7ACF880468946E0
:1057F00021A3D3E90023FBF70BFA80B140464946C9
:105800001FA3D3E90023FBF7E5F940B10022254BA4
:1058100040464946FAF7B6FDFBF742FA2062226A93
:10582000214B22499A4220D89B1A8A1A93428ABF56
:1058300013461D4A1D4A07EE903A07EE102A62628F
:10584000F8EE677AB8EEC77A67EE897AC7EE876AAC
:10585000F0EE007AF4EEE76AF1EE10FA94BF01235D
:10586000002384F82830002394E78A42A2EB030344
:10587000DBD9521ADAE700BF0000000080842E4115
:105880000000000084D79741B8B20020809FD50067
:10589000BCB20020803110C098480120FFFF7F7FFC
:1058A0000000C8420000E03F40787D01C0FC9B0141
:1058B0007720FBF7EDBF0000F8B504460D462DED4F
:1058C000088BB0EE409AF0EE609AB0EE40AAB0EECF
:1058D000608AF0EE418A002900F0A180002800F0E3
:1058E0009E80B0EEC07ADFED5E7AB4EE677AF1EEBC
:1058F00010FA00F29480B0EEE07AB4EE677AF1EE3E
:1059000010FA00F28C80B0EEC17AB4EE677AF1EE54
:1059100010FA00F28480DFED537AB4EEE71AF1EE6C
:1059200010FA7CD471EE00AADFED4FBAB0EE6A0A2D
:105930005DF030FBB4EEEB0AF1EE10FA6FD4F0EE4E
:10594000691A9FED4ABAB0EE6A1AF0EE690A39EEAA
:10595000680A61F09FFF2846B0EE408AB0EE60AA68
:10596000FAF74CFE3AA3D3E90023FAF7EBFF064619
:105970000F462046FAF742FE37A3D3E90023FAF791
:10598000B7FE02460B4630463946FAF7B1FE41EC07
:10599000190BB0EE490AF0EE690A5CF061FF51ECB8
:1059A000100BFBF79DF9B0EE490AF0EE690A0AEE1A
:1059B000900A5CF009FF51EC100BFBF791F901EE36
:1059C000100AF0EE6A1AAAEE8B1AF7EE00AAF0EEB1
:1059D0004A0AB0EE480A61F0F7FD7AEEC09AB1EEDD
:1059E00060AAB0EE408AB0EE609AB0EE690AF0EEBE
:1059F0004A0A5DF0CFFAB4EEEB0AF1EE10FA15D5D3
:105A0000DFED1B7A19EE103A9FED1A7AB0EE67AA15
:105A1000002B67FE877AB0EE678AA7EE8BAAB0EEFE
:105A20004A0AF0EE480ABDEC088BF8BD38EE2A0AA7
:105A3000F0EE4A1AB0EE691A68EE890A20EE280ADA
:105A4000BDEC088BBDE8F84061F024BFAFF30080E7
:105A5000000000A2941A6D42182D4454FB212940E5
:105A6000FFFF7F7F6F12833ACCBC8C2B00000000BD
:105A70000000807F000080FFF8B5174B1B78EBB16A
:105A8000164B1968D1B1164B1F68BFB1154B1A8858
:105A9000A2B1154B1D88012D10D9144E33889BB22D
:105AA0005C1CA4B2A54298BF0024114D2D88ADB254
:105AB000A54204D10F4A136801331360F8BD534364
:105AC00001EB4001520007EB430064F000FABFF322
:105AD0005F8F3480F2E700BFF0B2002008B30020EF
